{
  "contractName": "AtomicSwap",
  "abi": [
    {
      "constant": true,
      "inputs": [
        {
          "name": "",
          "type": "bytes32"
        }
      ],
      "name": "swaps",
      "outputs": [
        {
          "name": "initTimestamp",
          "type": "uint256"
        },
        {
          "name": "refundTime",
          "type": "uint256"
        },
        {
          "name": "hashedSecret",
          "type": "bytes32"
        },
        {
          "name": "secret",
          "type": "bytes32"
        },
        {
          "name": "initiator",
          "type": "address"
        },
        {
          "name": "participant",
          "type": "address"
        },
        {
          "name": "value",
          "type": "uint256"
        },
        {
          "name": "emptied",
          "type": "bool"
        },
        {
          "name": "state",
          "type": "uint8"
        }
      ],
      "payable": false,
      "stateMutability": "view",
      "type": "function"
    },
    {
      "anonymous": false,
      "inputs": [
        {
          "indexed": false,
          "name": "_refundTime",
          "type": "uint256"
        }
      ],
      "name": "Refunded",
      "type": "event"
    },
    {
      "anonymous": false,
      "inputs": [
        {
          "indexed": false,
          "name": "_redeemTime",
          "type": "uint256"
        },
        {
          "indexed": false,
          "name": "_secret",
          "type": "bytes32"
        }
      ],
      "name": "Redeemed",
      "type": "event"
    },
    {
      "anonymous": false,
      "inputs": [
        {
          "indexed": false,
          "name": "_hashedSecret",
          "type": "bytes32"
        },
        {
          "indexed": false,
          "name": "secret",
          "type": "bytes32"
        },
        {
          "indexed": false,
          "name": "calculatedSecret",
          "type": "bytes32"
        }
      ],
      "name": "LogSecrets",
      "type": "event"
    },
    {
      "anonymous": false,
      "inputs": [
        {
          "indexed": false,
          "name": "_initTimestamp",
          "type": "uint256"
        },
        {
          "indexed": false,
          "name": "_refundTime",
          "type": "uint256"
        },
        {
          "indexed": false,
          "name": "_hashedSecret",
          "type": "bytes32"
        },
        {
          "indexed": false,
          "name": "_initiator",
          "type": "address"
        },
        {
          "indexed": false,
          "name": "_participant",
          "type": "address"
        },
        {
          "indexed": false,
          "name": "_funds",
          "type": "uint256"
        }
      ],
      "name": "Initiated",
      "type": "event"
    },
    {
      "constant": false,
      "inputs": [
        {
          "name": "_refundTime",
          "type": "uint256"
        },
        {
          "name": "_hashedSecret",
          "type": "bytes32"
        },
        {
          "name": "_participant",
          "type": "address"
        }
      ],
      "name": "initiate",
      "outputs": [],
      "payable": true,
      "stateMutability": "payable",
      "type": "function"
    },
    {
      "constant": false,
      "inputs": [
        {
          "name": "_secret",
          "type": "bytes32"
        },
        {
          "name": "_hashedSecret",
          "type": "bytes32"
        }
      ],
      "name": "redeem",
      "outputs": [],
      "payable": false,
      "stateMutability": "nonpayable",
      "type": "function"
    },
    {
      "constant": false,
      "inputs": [
        {
          "name": "_hashedSecret",
          "type": "bytes32"
        }
      ],
      "name": "refund",
      "outputs": [],
      "payable": false,
      "stateMutability": "nonpayable",
      "type": "function"
    }
  ],
  "bytecode": "0x608060405234801561001057600080fd5b50610abf806100206000396000f3fe60806040526004361061003f5760003560e01c80637249fbb614610044578063ae0521471461007f578063b31597ad146100d7578063eb84e7f21461011c575b600080fd5b34801561005057600080fd5b5061007d6004803603602081101561006757600080fd5b810190808035906020019092919050505061020d565b005b6100d56004803603606081101561009557600080fd5b810190808035906020019092919080359060200190929190803573ffffffffffffffffffffffffffffffffffffffff169060200190929190505050610445565b005b3480156100e357600080fd5b5061011a600480360360408110156100fa57600080fd5b81019080803590602001909291908035906020019092919050505061070d565b005b34801561012857600080fd5b506101556004803603602081101561013f57600080fd5b81019080803590602001909291905050506109eb565b604051808a81526020018981526020018881526020018781526020018673ffffffffffffffffffffffffffffffffffffffff1673ffffffffffffffffffffffffffffffffffffffff1681526020018573ffffffffffffffffffffffffffffffffffffffff1673ffffffffffffffffffffffffffffffffffffffff168152602001848152602001831515151581526020018260018111156101f157fe5b60ff168152602001995050505050505050505060405180910390f35b8060008082815260200190815260200160002060010154600080838152602001908152602001600020600001540142116102af576040517f08c379a00000000000000000000000000000000000000000000000000000000081526004018080602001828103825260138152602001807f746f6f206561726c7920746f2072656465656d0000000000000000000000000081525060200191505060405180910390fd5b6000151560008083815260200190815260200160002060070160009054906101000a900460ff1615151461034b576040517f08c379a00000000000000000000000000000000000000000000000000000000081526004018080602001828103825260148152602001807f7377617020616c726561647920656d707469656400000000000000000000000081525060200191505060405180910390fd5b60008083815260200190815260200160002060050160009054906101000a900473ffffffffffffffffffffffffffffffffffffffff1673ffffffffffffffffffffffffffffffffffffffff166108fc600080858152602001908152602001600020600601549081150290604051600060405180830381858888f193505050501580156103db573d6000803e3d6000fd5b50600160008084815260200190815260200160002060070160006101000a81548160ff0219169083151502179055507f3d2a04f53164bedf9a8a46353305d6b2d2261410406df3b41f99ce6489dc003c426040518082815260200191505060405180910390a15050565b816000600181111561045357fe5b60008083815260200190815260200160002060070160019054906101000a900460ff16600181111561048157fe5b146104f4576040517f08c379a00000000000000000000000000000000000000000000000000000000081526004018080602001828103825260158152602001807f6d757374206e6f7420626520696e69746961746564000000000000000000000081525060200191505060405180910390fd5b8360008085815260200190815260200160002060010181905550426000808581526020019081526020016000206000018190555082600080858152602001908152602001600020600201819055508160008085815260200190815260200160002060050160006101000a81548173ffffffffffffffffffffffffffffffffffffffff021916908373ffffffffffffffffffffffffffffffffffffffff1602179055503360008085815260200190815260200160002060040160006101000a81548173ffffffffffffffffffffffffffffffffffffffff021916908373ffffffffffffffffffffffffffffffffffffffff160217905550600160008085815260200190815260200160002060070160016101000a81548160ff0219169083600181111561061c57fe5b021790555034600080858152602001908152602001600020600601819055507f75501a491c11746724d18ea6e5ac6a53864d886d653da6b846fdecda837cf576600080858152602001908152602001600020600001548585853334604051808781526020018681526020018581526020018473ffffffffffffffffffffffffffffffffffffffff1673ffffffffffffffffffffffffffffffffffffffff1681526020018373ffffffffffffffffffffffffffffffffffffffff1673ffffffffffffffffffffffffffffffffffffffff168152602001828152602001965050505050505060405180910390a150505050565b808281816040516020018082815260200191505060405160208183030381529060405280519060200120146107aa576040517f08c379a00000000000000000000000000000000000000000000000000000000081526004018080602001828103825260148152602001807f7365637265747320646f206e6f74206d6174636800000000000000000000000081525060200191505060405180910390fd5b600080838152602001908152602001600020600101546000808481526020019081526020016000206000015401421061084b576040517f08c379a00000000000000000000000000000000000000000000000000000000081526004018080602001828103825260138152602001807f746f6f206561726c7920746f2072656465656d0000000000000000000000000081525060200191505060405180910390fd5b6000151560008084815260200190815260200160002060070160009054906101000a900460ff161515146108e7576040517f08c379a000000000000000000000000000000000000000000000000000000000815260040180806020018281038252600f8152602001807f616c726561647920656d7074696564000000000000000000000000000000000081525060200191505060405180910390fd5b60008084815260200190815260200160002060050160009054906101000a900473ffffffffffffffffffffffffffffffffffffffff1673ffffffffffffffffffffffffffffffffffffffff166108fc600080868152602001908152602001600020600601549081150290604051600060405180830381858888f19350505050158015610977573d6000803e3d6000fd5b50600160008085815260200190815260200160002060070160006101000a81548160ff0219169083151502179055507f4fc9c25b46f7854a495f8830e3d532a48cd64b4e4e3f6038557fe5669885bbe64285604051808381526020018281526020019250505060405180910390a150505050565b60006020528060005260406000206000915090508060000154908060010154908060020154908060030154908060040160009054906101000a900473ffffffffffffffffffffffffffffffffffffffff16908060050160009054906101000a900473ffffffffffffffffffffffffffffffffffffffff16908060060154908060070160009054906101000a900460ff16908060070160019054906101000a900460ff1690508956fea165627a7a723058209ae66d0d443c261901fac058e5f27945e8074bd7054b139330f1a2a2d58110180029",
  "source": "pragma solidity >=0.5.0 <0.7.0;\n\ncontract AtomicSwap {\n    enum State {Empty, Initiator}\n\n    struct Swap {\n        uint256 initTimestamp;\n        uint256 refundTime;\n        bytes32 hashedSecret;\n        bytes32 secret;\n        address payable initiator;\n        address payable participant;\n        uint256 value;\n        bool emptied;\n        State state;\n    }\n\n    mapping(bytes32 => Swap) public swaps;\n\n    event Refunded(uint256 _refundTime);\n    event Redeemed(uint256 _redeemTime, bytes32 _secret);\n\n    event LogSecrets(bytes32 _hashedSecret, bytes32 secret, bytes32 calculatedSecret);\n\n    event Initiated(\n        uint256 _initTimestamp,\n        uint256 _refundTime,\n        bytes32 _hashedSecret,\n        address payable _initiator,\n        address payable _participant,\n        uint256 _funds\n    );\n\n    modifier isRefundable(bytes32 _hashedSecret) {\n        require(\n            block.timestamp >\n                swaps[_hashedSecret].initTimestamp +\n                    swaps[_hashedSecret].refundTime,\n             \"too early to redeem\"\n        );\n        require(swaps[_hashedSecret].emptied == false, \"swap already emptied\");\n        _;\n    }\n\n    modifier isRedeemable(bytes32 _hashedSecret, bytes32 _secret) {\n        // bytes32 calculated = keccak256(abi.encodePacked(_secret));\n        // emit LogSecrets(_hashedSecret, _secret, calculated);\n        require(keccak256(abi.encodePacked(_secret)) == _hashedSecret, \"secrets do not match\");\n        require(\n            block.timestamp <\n                swaps[_hashedSecret].initTimestamp +\n                    swaps[_hashedSecret].refundTime,\n            \"too early to redeem\"\n        );\n        require(swaps[_hashedSecret].emptied == false, \"already emptied\");\n        _;\n    }\n\n    modifier isInitiator(bytes32 _hashedSecret) {\n        require(\n            msg.sender == swaps[_hashedSecret].initiator,\n            \"you are not the initator\"\n        );\n        _;\n    }\n\n    modifier isNotInitiated(bytes32 _hashedSecret) {\n        require(\n            swaps[_hashedSecret].state == State.Empty,\n            \"must not be initiated\"\n        );\n        _;\n    }\n\n    function initiate(\n        uint256 _refundTime,\n        bytes32 _hashedSecret,\n        address payable _participant\n    ) public payable isNotInitiated(_hashedSecret) {\n        swaps[_hashedSecret].refundTime = _refundTime;\n        swaps[_hashedSecret].initTimestamp = block.timestamp;\n        swaps[_hashedSecret].hashedSecret = _hashedSecret;\n        swaps[_hashedSecret].participant = _participant;\n        swaps[_hashedSecret].initiator = msg.sender;\n        swaps[_hashedSecret].state = State.Initiator;\n        swaps[_hashedSecret].value = msg.value;\n        emit Initiated(\n            swaps[_hashedSecret].initTimestamp,\n            _refundTime,\n            _hashedSecret,\n            _participant,\n            msg.sender,\n            msg.value\n        );\n    }\n\n    function redeem(bytes32 _secret, bytes32 _hashedSecret) public\n        isRedeemable(_hashedSecret, _secret)\n    {\n\n        swaps[_hashedSecret].participant.transfer(swaps[_hashedSecret].value);\n\n        swaps[_hashedSecret].emptied = true;\n        emit Redeemed(block.timestamp, _secret);\n        // swaps[_hashedSecret].secret = _secret;\n    }\n\n    function refund(bytes32 _hashedSecret) public isRefundable(_hashedSecret) {\n        swaps[_hashedSecret].participant.transfer(\n            swaps[_hashedSecret].value\n        );\n        \n        swaps[_hashedSecret].emptied = true;\n        emit Refunded(block.timestamp);\n    }\n}\n",
  "sourcePath": "/Users/tobowers/code/atomicswap/contracts/AtomicSwap.sol",
  "compiler": {
    "name": "solc",
    "version": "0.5.8+commit.23d335f2.Emscripten.clang"
  },
  "schemaVersion": "3.0.16",
  "updatedAt": "2020-02-18T11:14:51.227Z",
  "devdoc": {
    "methods": {}
  },
  "userdoc": {
    "methods": {}
  }
}